S0110000736F6674626C696E6B2E7372656347
S11300000C9434000C943E000C943E000C943E007E
S11300100C943E000C943E000C943E000C943E0064
S11300200C943E000C943E000C943E000C943E0054
S11300300C943E000C943E000C943E000C943E0044
S11300400C943E000C943E000C943E000C943E0034
S11300500C943E000C943E000C943E000C943E0024
S11300600C943E000C943E0011241FBECFEFD4E04C
S1130070DEBFCDBF0E944A000C9468000C940000BF
S11300808AB180648AB983E884BD81E085BD80E853
S113009087BD08950E94400080E090E08F3F910565
S11300A009F04CF487BDE3ECF9E03197F1F700C0B7
S11300B000000196F3CF8FEF90E099236CF387BD96
S11300C0E3ECF9E03197F1F700C000000197F5CFB8
S10700D0F894FFCFCE
S9030000FC
